:1021DB00CEC2CAAAB6C8CAB5CAB1BCE0BFD8002D18
:1021EB002D2D2D2D2D2D2D2D2D2D2D2D2D2D2D0041
:1021FB00CEC2B6C8A3BA00A1E600CAAAB6C8A3BA93
:10220B0000255248002533640025326400CAB10012
:06221B00B7D600C3EB0082
:0624650004190000000054
:102015007FE07EFF122298753CFF753DE0753EFF1F
:10202500753F217540DB7B1F7A007D0A7C007F05AB
:102035007E00121DC87BFF7A2179EA753DF8753E51
:1020450000753FFF7540E07D1A7C00E4FFFE121B22
:102055000E753CFF753DE0753EFF753F217540FBF4
:102065007B1F7A007D2A7C007F057E00121DC875C6
:102075003CFF753DE0753EFF753F227540027B00D4
:102085007AF87D2A7C007F5F7E00121DC8753CFFB3
:10209500753DE0753EFF753F227540057B1F7A0053
:1020A5007D447C007F057E00121DC87BFF7A227966
:1020B5000C753DF8753E00753FFF7540E07D447C2D
:1020C500007F5A7E00121B0E7BFF7A2179EA753D4F
:1020D500F8753E00753FFF7540E07D547C00E4FFD8
:0420E500FE021B0ECE
:042175008C228D2308
:102179007539FF753A22753B108E3C8F3D7B007A8D
:102189000079241212257539FF753A22753B10859D
:10219900223C85233D7B007A00792A1212257B0097
:1021A9007A007924E4F53DF53E753FFF7540E07D01
:1021B9002AFC7F35FE121B0E7B007A00792AE4F592
:1021C9003DF53E753FFF7540E07D44FC7F35FE02DD
:0221D9001B0EDB
:10244700438901758CF8758ACDD2A9D28CD2AF2277
:081F07008F258E248D238C220E
:101F0F007539FF753A22753B107C0E7D1012156BDB
:101F1F008E3C8F3D7B007A0079261212257539FF92
:101F2F00753A22753B14AE24AF257C007D3C12150B
:101F3F006B8E3C8F3D7B007A0079301212257539FC
:101F4F00FF753A22753B14AE24AF257C007D3C1201
:101F5F00156B8C3C8D3D7B007A0079331212257BFB
:101F6F00007A007926E4F53DF53E753FFF7540E0B8
:101F7F007D64FCFFFE121B0E753CFF753DE0753E48
:101F8F00FF753F227540187B1F7A007D647C007FB0
:101F9F001E7E00121DC87B007A007930E4F53DF5F6
:101FAF003E753FFF7540E07D64FC7F32FE121B0ED5
:101FBF00753CFF753DE0753EFF753F2275401B7BFD
:101FCF001F7A007D647C007F467E00121DC87B0057
:101FDF007A007933E4F53DF53E753FFF7540E07DBE
:101FEF0064FC7F5AFE121B0E753CFF753DE0753E7B
:101FFF00FF753F2275401E7B1F7A007D647C007F3A
:06200F006E7E00021DC8F8
:1022210012195D12201512244712235D7FC87E000A
:1022310012237F12235DAF1E7E00AD1D7C00122193
:1022410075E47BE87A03F9F8AF1CAE1BAD1AAC1943
:0F22510012162C121F077FF47E0112237F80D4F8
:03000B000222C20C
:1022C200C0E0C0D0C28C758CF8758ACDD28CE51C6A
:1022D2002401F51CE4351BF51BE4351AF51AE43527
:0822E20019F519D0D0D0E0324B
:10000E00CEC2000023F81208120883F842084208F4
:10001E0013F8100027FCE4A424A424A424A42FFE87
:10002E000000CAAA000027F81408140887F844082C
:10003E00440817F811202120E924252823302120F7
:10004E002FFE0000B6C8010000803FFE22202220B5
:10005E003FFC2220222023E020002FF024104220FB
:10006E0041C08630380ECAB5020001007FFE400244
:10007E00888404800480108008800880FFFE014080
:10008E000220041018086004CAB1000800087C0899
:10009E00440845FE440844087C08448844484448C3
:1000AE0044087C08440800280010BCE004402440AA
:1000BE00247C2440249024882508040000003FF866
:1000CE002448244824482448FFFE0000BFD810408E
:1000DE001020102013FEFA02149411081A04300096
:1000EE00D1FC102010201020102057FE2000A3BAA3
:1000FE0000000000000000000000000000000000F2
:10010E000000300030000000300030000000000021
:10011E00A1E6600091F4960C6C0408041800180017
:10012E00180018001800180008000C04060801F04A
:10013E000000CAB1000800087C08440845FE4408C7
:10014E0044087C0844884448444844087C084408D1
:10015E0000280010BCE4200013FC1004400447C427
:10016E0044444444444447C444444444444447C43B
:10017E00400440144008B7D6004004400420082034
:10018E001010200840049FE20420042004200820C0
:10019E000820102021404080C3EB08201C20F020B6
:1001AE0010A810A4FCA2112231203A245424542861
:1001BE0090081010102010C0130000000000000066
:1001CE000000000000000000000000000000000021
:1001DE000000000000000000000000000000000011
:1001EE000000000000000000000000000000000001
:1001FE0000000000000000000000000000000000F1
:10020E0000000000000000000000000000000000E0
:10021E0000000000000000000000000000000000D0
:10022E0000000000000000000000000000000000C0
:10023E00000000000000000000000000001808C8C8
:10024E000808000000000000000000007F606060F1
:10025E006060606060E06020000000000000000050
:10026E000000000000000000000000001818181028
:10027E001010000000000000000000000000000050
:10028E0000000808080C0C0C000000000000000024
:10029E000000000000000000000000006C3810009C
:1002AE007CC6701CC67C00000000000010386C007C
:1002BE00780C7CCCCC760000000000000000000022
:1002CE007CC670C0C67C000000000000000000006C
:1002DE006C967CD0D66C0000000000000000000080
:1002EE007CC60606C67C00000000000000386CC606
:1002FE00C6FEC6C66C3800000000000000000010EC
:10030E0038286C44C6C60000000000000000000043
:10031E007CC606FEC67C0000000000000000000047
:10032E00DC666666F60606663C000000006C38F871
:10033E000C7EC6C6C67C000000000000000E1B1816
:10034E00181818181818D87000000000000000FEC9
:10035E00860C180C0606C67C0000000076DC000039
:10036E00780C7CCCCC7600000000000076DC00001F
:10037E007CC60606C67C00000000000076DC00008D
:10038E00DC66666666660000000000000000000085
:10039E0076999F98996F0000000000000000000001
:1003AE0000000000000C0606000000000000000027
:1003BE00000000003C66663C0000000000000000EB
:1003CE0000000000000000000000000000183C3C8F
:1003DE003C1818001818000000000000C6C6C644DD
:1003EE00000000000000000000000000006C6CFE29
:1003FE006C6C6CFE6C6C000000000018187CC6C2A1
:10040E00C07C0686C67C181800000000000000C3E1
:10041E00C60C183063C300000000000000386C6C7E
:10042E003876DCCCCC760000000000003030306036
:10043E000000000000000000000000000018306006
:10044E0060606060301800000000000000180C06AC
:10045E00060606060C180000000000000000006CE6
:10046E0038FE386C00000000000000000000181874
:10047E00187E181818000000000000000000000090
:10048E0000000018181830000000000000000000E6
:10049E0000FE000000000000000000000000000050
:1004AE000000000018180000000000000002060CFA
:1004BE00183060C08000000000000000007CC6CE36
:1004CE00DEF6E6C6C67C0000000000000018387894
:1004DE0018181818187E000000000000007CC606D0
:1004EE000C183060C6FE000000000000007CC6063E
:1004FE00063C0606C67C000000000000000C1C3CFA
:10050E006CCCFE0C0C1E00000000000000FEC0C0F3
:10051E00C0FC0606C67C000000000000003860C06B
:10052E00C0FCC6C6C67C00000000000000FEC60669
:10053E000C1830303030000000000000007CC6C6C1
:10054E00C67CC6C6C67C000000000000007CC6C685
:10055E00C67E06060C780000000000000000181889
:10056E00000000181800000000000000000018181D
:10057E0000000018183000000000000000060C18E3
:10058E00306030180C060000000000000000000073
:10059E007E00007E000000000000000000603018A9
:1005AE000C060C183060000000000000007CC6C66F
:1005BE000C1818001818000000000000007CC6C6B9
:1005CE00DEDEDEDCC07C0000000000000010386CB7
:1005DE00C6C6FEC6C6C600000000000000FC666669
:1005EE00667C666666FC000000000000003C66C289
:1005FE00C0C0C0C2663C00000000000000F86C667F
:10060E00666666666CF800000000000000FE66621A
:10061E006878686266FE00000000000000FE6662F8
:10062E006878686060F0000000000000003C66C260
:10063E00C0C0DEC6663A00000000000000C6C6C696
:10064E00C6FEC6C6C6C6000000000000003C181854
:10065E0018181818183C000000000000001E0C0CA2
:10066E000C0C0CCCCC7800000000000000E6666C90
:10067E006C786C6C66E600000000000000F06060B4
:10068E006060606266FE00000000000000C6EEFEC4
:10069E00D6C6C6C6C6C600000000000000C6E6F6F6
:1006AE00FEDECEC6C6C600000000000000386CC6D6
:1006BE00C6C6C6C66C3800000000000000FC6666A8
:1006CE00667C606060F0000000000000007CC6C622
:1006DE00C6D6DE7C0C0E00000000000000FC666634
:1006EE00667C6C6666E6000000000000007CC6C6F4
:1006FE0060380CC6C67C000000000000007E5A1850
:10070E0018181818183C00000000000000C6C6C6D5
:10071E00C6C6C6C6C67C00000000000000C6C6C61F
:10072E00C6C6C66C381000000000000000C6C6C663
:10073E00C6C6D6FEEEC600000000000000C6C6C645
:10074E006C386CC6C6C600000000000000C6C6C6E7
:10075E006C383838387C00000000000000FEC68C73
:10076E00183060C2C6FE000000000000003C3030B1
:10077E0030303030303C0000000000000080C0E01F
:10078E0070381C0E0602000000000000003C0C0C2D
:10079E000C0C0C0C0C3C000000000010386CC60059
:1007AE00000000000000000000000000000000003B
:1007BE0000000000000000FE0000000030301800B5
:1007CE00000000000000000000000000000000001B
:1007DE00780C7CCCCC7600000000000000E060605D
:1007EE00786C666666DC0000000000000000000009
:1007FE007CC6C0C0C67C000000000000001C0C0CB3
:10080E003C6CCCCCCC760000000000000000000058
:10081E007CC6FEC0C67C000000000000001C363204
:10082E00307C303030780000000000000000000006
:10083E0076CCCCCC7C0CCC780000000000E0606064
:10084E006C76666666E60000000000000018180070
:10085E0038181818183C00000000000000060600AA
:10086E000E0606060666663C0000000000E06060AC
:10087E00666C786C66E60000000000000038181800
:10088E0018181818183C00000000000000000000A6
:10089E0044FED6D6D6D600000000000000000000B0
:1008AE00DC66666666660000000000000000000060
:1008BE007CC6C6C6C67C000000000000000000001A
:1008CE00DC6666667C6060F00000000000000000E0
:1008DE0076CCCCCC7C0C0C1E00000000000000007E
:1008EE00DC76666060F00000000000000000000092
:1008FE007CC6701CC67C000000000000001030306A
:10090E00FC303030361C00000000000000000000FB
:10091E00CCCCCCCCCC760000000000000000000057
:10092E00C6C6C66C381000000000000000000000B3
:10093E00C6C6C6D6FE6C0000000000000000000017
:10094E00C66C38386CC600000000000000000000C5
:10095E00C6C6C6C67E060C78000000000000000069
:10096E00FECC183066FE000000000000000E1818C5
:10097E0018701818180E0000000000000018181843
:10098E001800181818180000000000000070181841
:10099E00180E181818700000000000000076DC0019
:1009AE000000000000000000000000000000000039
:1009BE000000000000000000000000000000000029
:1009CE000000000000000000000000000000000019
:1009DE000000000000000000000000000000000009
:10237F00E4FDFCC3ED9FEC9E5015E4FBFA0BBB0094
:0F238F00010AEB64FA4A70F50DBD00010C80E401
:01239E00221C
:102407007E08EF30E704D2A38002C2A3C2A5D2A5FB
:06241700EF25E0FFDEEC02
:01241D00229C
:0A247200C2A0C2A2122407D2A022C9
:072433007F2A122472E4FF6E
:0C243A00E4F557C2A0D2A2122407D2A0E1
:012446002273
:0423EF00AD07AC0684
:1023F300E4F54FC2A0D2A2AF04122407AF05122402
:0324030007D2A05D
:0124060022B3
:0E245700C2A17F647E0012237FD2A102237FE8
:10195D001224577F111224727F787E0012237F7F0D
:10196D00B11224727F0112243A7F2C12243A7F2D5A
:10197D0012243A7FB21224727F0112243A7F2C1264
:10198D00243A7F2D12243A7FB31224727F01122440
:10199D003A7F2C12243A7F2D12243A7F0112243AD9
:1019AD007F2C12243A7F2D12243A7FB41224727F99
:1019BD000712243A7FC01224727FA212243A7F02AA
:1019CD0012243A7F8412243A7FC11224727FC512E9
:1019DD00243A7FC21224727F0A12243AE4FF1224A1
:1019ED003A7FC31224727F8A12243A7F2A12243A34
:1019FD007FC41224727F8A12243A7FEE12243A7F1A
:101A0D00C51224727F0E12243A7F361224727FA8DB
:101A1D0012243A7FE01224727F0F12243A7F1A1299
:101A2D00243A7F0F12243A7F1812243A7F2F122462
:101A3D003A7F2812243A7F2012243A7F2212243A28
:101A4D007F1F12243A7F1B12243A7F2312243A7FE0
:101A5D003712243AE4FF12243A7F0712243A7F0208
:101A6D0012243A7F1012243A7FE11224727F0F1252
:101A7D00243A7F1B12243A7F0F12243A7F17122427
:101A8D003A7F3312243A7F2C12243A7F2912243ABA
:101A9D007F2E12243A7F3012243A7F3012243A7F5F
:101AAD003912243A7F3F12243AE4FF12243A7F0779
:101ABD0012243A7F0312243A7F1012243A1224334F
:101ACD007F0212243AE4FF12243A7F8212243A7FD5
:101ADD002B1224357F0312243AE4FF12243A7F831C
:101AED0012243A7FF01224727F0112243A7FF612EB
:101AFD0024357F3A1224727F0512243A7F2902245D
:011B0D007265
:102260008F82122433AF82EF2403FF12243AE4FF5B
:1022700012243AEB2403FF12243A7F2B122435ED6B
:102280002402FF12243AE4FF12243AE5562402FF06
:0822900012243A7F2C02247293
:10239F008A4D8B4EEF2401FBE43EFAED2401F556F6
:0E23AF00E43CF555122260AF4EAE4D0223EF16
:042298008E228F23E0
:10229C0075550075567F7B7F7A00E4FDFCFFFE12BE
:1022AC002260E4FBE4FAAF23AE221223EF0ABA80D9
:0522BC00F50BBB80EFF3
:0122C10022FA
:0E1B0E008E368F378C388D398B3A8A3B893C66
:101B1C00E4F541F542AB3AAA3BA93C12241EC3E5BD
:101B2C00429FEE6480F8E5416480984003021C8477
:101B3C00AB3AAA3BA93C85428285418312153EFFF4
:101B4C00C394A14009900042EFF0E4A3F022AB3A19
:101B5C00AA3BA93C85428285418312153EFFE4FCD9
:101B6C00FDFE7B10FAF9F81215A18F4C8E4B8D4AA5
:101B7C008C49E4FFFEE54C2FFDE54B3EFC74C82D73
:101B8C00F58274013CF583E493FD74222FF5827485
:101B9C00003EF583EDF00FBF00010EEF64104E70A8
:101BAC00D4E4F545F546E4F543F544AE43AF447C47
:101BBC00007D0812156B74807E00A805088006CE87
:101BCC00A2E713CE13D8F8FF74222546F5827400D1
:101BDC003545F583E0FD3395E05EFEEF5D4E602EFE
:101BEC00E5372544FDE5363543FCE542AE41780347
:101BFC00C333CE33CED8F92DF548EC3EF547E54648
:101C0C002539FDE5453538FCAB3EAA3D802CE53742
:101C1C002544FDE5363543FCE542AE417803C3333C
:101C2C00CE33CED8F92DF548EC3EF547E5462539AF
:101C3C00FDE5453538FCAB40AA3FAF48AE47122313
:101C4C009F0544E54470020543C39408E543648052
:101C5C0094805003021BB70546E54670020545C348
:101C6C009410E545648094805003021BB20542E554
:081C7C004270020541021B2128
:011C8400223D
:0E1C85008E088F098C0A8D0B8B0C8A0D890E30
:101C9300E4F50FF510AB0CAA0DA90E12241EC3E533
:101CA300109FEE6480F8E50F6480984003021DC71F
:101CB300AB0CAA0DA90E851082850F8312153EFF6A
:101CC300C394A14009900020EFF0E4A3F022AB0CF1
:101CD300AA0DA90E851082850F8312153EFFE4FC21
:101CE300FDFE7B10FAF9F81215A18F188E178D16C9
:101CF3008C15E4FFFEE5182FFDE5173EFC74C82D97
:101D0300F58274013CF583E493FD74002FF582742E
:101D1300003EF583EDF00FBF00010EEF64104E702F
:101D2300D4E4F513F514E4F511F512AE11AF127CFA
:101D3300007D0812156B74807E00A805088006CE0E
:101D4300A2E713CE13D8F8FF74002514F5827400AC
:101D53003513F583E0FD3395E05EFEEF5D4E602DB8
:101D6300E5092512FDE5083511FCE510AE0F7803F2
:101D7300C333CE33CED8F92DFFEC3EFEE514250B4D
:101D8300FDE513350AFC7B007AF812239F0512E563
:101D93001270020511C39408E51164809480408B8E
:101DA3000514E51470020513C39410E513648094BD
:101DB300805003021D290510E5106003021C9805DD
:041DC3000F021C9857
:011DC70022F9
:0C1DC8008E368F378C388D398A3A8B3B71
:101DD40075430075440DAB3EAA3FA940121525700A
:101DE40003021F06C394805003021EF8E4F541F574
:101DF40042C3E5429544E54195434003021EDFABEF
:101E04003EAA3FA940121525FF90000E75F022E569
:101E1400421216BEE54175F022A42583F583E493AE
:101E24006F6003021ED490000112153EFF90000F54
:101E340075F022E5421216BEE54175F022A4258311
:101E4400F583E4936F6003021ED4E537240FFBE4AB
:101E54003536FAE539240FF556E43538F555AD39FC
:101E6400AC38AF37AE36122260E4FBE4FA900010CF
:101E740075F022E5421216BEE54175F022A42583D1
:101E8400F583E5822BF582E43583F583E493FD3312
:101E940095E0FC74807E00A802088006CEA2E713B9
:101EA400CE13D8F8FFEE5CFEEF5D4E6006AF3BAE9E
:101EB4003A8010E53B653D7004E53A653C6007AF48
:101EC4003DAE3C1223EF0ABA08A30BEB6420709BCF
:101ED4000542E54270020541021DF574022540F5F4
:101EE40040E4353FF53F74102537F537E43536F5D2
:101EF40036021DDA74012540F540E4353FF53F0212
:021F04001DDAE4
:011F060022B8
:0C1767008E588F598C5A8D5B8A5C8B5D0C
:10177300855867855968AB60AA61A96212152570FF
:101783000302195CC39480500302194EE4F565F516
:1017930066AB60AA61A962121525FF90000E75F071
:1017A30022E5661216BEE56575F022A42583F5834E
:1017B300E4936F600302192190000112153EFF901C
:1017C300000F75F022E5661216BEE56575F022A4DA
:1017D3002583F583E4936F6003021921F563E4F530
:1017E3006490001075F022E5661216BEE56575F08B
:1017F30022A42583F58375F002E5631216BEE493F4
:10180300FD3395E0FC74807E00A864088006CEA2B8
:10181300E713CE13D8F8FFEE5CFEEF5D4E601C7E3F
:1018230000E5592564FFEE3558FE7C00E55B256332
:10183300FDEC355AFCAB5DAA5C8026E55D655F7007
:1018430004E55C655E601D7E00E5592564FFEE35A9
:1018530058FE7C00E55B2563FDEC355AFCAB5FAAC3
:101863005E12239F0564E564C3940850030217E4E2
:10187300E4F56490001175F022E5661216BEE56585
:1018830075F022A42583F58375F002E5631216BE75
:10189300E493FD3395E0FC74807E00A86408800621
:1018A300CEA2E713CE13D8F8FFEE5CFEEF5D4E60D9
:1018B30024AF647E00E5592564CFEE3558CF240864
:1018C300CF3400FE7C00E55B2563FDEC355AFCABB1
:1018D3005DAA5C802EE55D655F7004E55C655E6016
:1018E30025AF647E00E5592564CFEE3558CF240833
:1018F300CF3400FE7C00E55B2563FDEC355AFCAB81
:101903005FAA5E12239F0564E564C3940850030233
:1019130018760563E563C3941050030217E1056667
:10192300E56670020565C3941CE5659400500302E7
:10193300179474022562F562E43561F5617410252C
:1019430059F559E43558F55802177974012562F5AC
:0919530062E43561F561021779C7
:01195C002268
:06246B00011D00011E002E
:09247C00007F0B7EBEDEFEDFFCDA
:012485002234
:0423BD00AD07AC06B6
:1023C100E4FBFAC3EB9DEA9C500A12247C0BBB0090
:0423D100010A80EF8E
:0123D50022E5
:070003000000007F18DFFE82
:01000A0022D3
:0423D600AD07AC069D
:1023DA00E4FBFAC3EB9DEA9C500A1200030BBB0014
:0423EA00010A80EF75
:0123EE0022CC
:10233800D200C2B47F197E001223BDD2B47F037EBF
:10234800001223D6A2B492007F031223D67F041270
:0423580023D6A200E6
:01235C00225E
:1022EA0020B4FDE4FE30B4FDEF25E0FFE4FD30B498
:1022FA00030D80FAEDC3941E50055307FE80034375
:06230A0007010EBE08DF12
:0123100022AA
:10235D00122338401C1222EA8F1D1222EA1222EAA1
:10236D008F1E1222EA1222EA7F057E001223D6D298
:02237D00B42288
:030000000220E9F2
:0C20E900787FE4F6D8FD75816802213094
:10152500BB010689828A83E0225002E722BBFE02C4
:09153500E32289828A83E49322F7
:10153E00BB010CE58229F582E5833AF583E0225062
:10154E0006E92582F8E622BBFE06E92582F8E222AC
:0D155E00E58229F582E5833AF583E49322C6
:10156B00C2D5EC30E709B2D5E4C39DFDE49CFCEE9B
:10157B0030E715B2D5E4C39FFFE49EFE1216DCC321
:10158B00E49DFDE49CFC80031216DC30D507C3E41C
:06159B009FFFE49EFE220A
:1015A100E88FF0A4CC8BF0A42CFCE98EF0A42CFCE9
:1015B1008AF0EDA42CFCEA8EF0A4CDA8F08BF0A467
:1015C1002DCC3825F0FDE98FF0A42CCD35F0FCEBC6
:1015D1008EF0A4FEA9F0EB8FF0A4CFC5F02ECD398B
:0F15E100FEE43CFCEAA42DCE35F0FDE43CFC22F8
:1015F00075F008758200EF2FFFEE33FECD33CDCCB2
:1016000033CCC58233C5829BED9AEC99E582984034
:101610000CF582EE9BFEED9AFDEC99FC0FD5F0D611
:10162000E4CEFBE4CDFAE4CCF9A88222B800C1B93B
:101630000059BA002DEC8BF084CFCECDFCE5F0CB79
:10164000F97818EF2FFFEE33FEED33FDEC33FCEBB2
:1016500033FB10D703994004EB99FB0FD8E5E4F96D
:10166000FA227818EF2FFFEE33FEED33FDEC33FC5A
:10167000C933C910D7059BE99A4007EC9BFCE99A4E
:10168000F90FD8E0E4C9FAE4CCFB2275F010EF2F93
:10169000FFEE33FEED33FDCC33CCC833C810D70793
:1016A0009BEC9AE899400AED9BFDEC9AFCE899F8CE
:0E16B0000FD5F0DAE4CDFBE4CCFAE4C8F92261
:0C16BE00A42582F582E5F03583F5832237
:1011C900E5452439F8E605452278363007027839AD
:1011D900E475F0011217310215252000EB7F2ED29C
:1011E900008018EF540F2490D43440D4FF30040BFE
:1011F900EF24BFB41A0050032461FFE546600215CD
:10120900460549E5497002054830070D7836E47509
:10121900F001121731EF0216CA0223117403D20723
:101229008003E4C207F5458B368A378938E4F546E9
:10123900F548F549E54660077F2012120480F575E7
:1012490047FFC201C200C202C203C205C206C208E8
:101259001211D2FF700D3007057F00121215AF4928
:10126900AE4822B4255FC2D5C2041211D2FF24D0E0
:10127900B40A00501A75F00A784630D50508B6FF49
:101289000106C6A426F620D5047002D20380D9240B
:10129900CFB41A00EF5004C2E5D204021415D201EA
:1012A90080C6D20080C0D20280BCD2D580BAD20515
:1012B90080B47F201212042002077401B546004051
:1012C900F11211C9FF12120402123DD208D206808E
:1012D900951211C9FB1211C9FA1211C9F94A4B70B9
:1012E9000679E67A147BFF20022EE546602A7E0005
:1012F9008E8275830012153E60060EEE654770F00A
:10130900C2D5EBC0E0EAC0E0E9C0E0EE12145CD05F
:10131900E0F9D0E0FAD0E0FB121525FF60AAEBC096
:10132900E0EAC0E0E9C0E0121204D0E02401F9D0FB
:10133900E03400FAD0E0FBE5470460DCD547D9800A
:10134900877BFF7A147958D202809C7910800279C0
:1013590008C206C2088008D2D5790A8004790AC26F
:10136900D5E547047002F547E4FAFDFEFF1211C9FD
:10137900FC7B082001131211C9FD7B1030000A12F1
:1013890011C9FE1211C9FF7B20EC3382D592D550C9
:1013990013C3E43000069FFFE49EFEE42001039D91
:1013A900FDE49CFCE4CBF8C201EC700CCFCECDCCB3
:1013B900E824F8F870F38017C3EF33FFEE33FEED3E
:1013C90033FDEC33FCEB33FB994002FB0FD8E9EB1F
:1013D900300105F8D0E0C448B201C0E00AEC4D4E36
:1013E9004F78207B0070C2EAB5470040BCC0E012CC
:1013F900145ED0F0D0E0200104C4C0E0C4B201C042
:10140900F01211EDD0F0D5F0EB02123D1217411296
:10141900DA5313545812AB4C12A74213584F1360A6
:0F1429004413604912C043136655134A46134AD1
:1014380045134A4715065012AF2D12B32E12D62B5C
:1014480012B72312D42014EF2A126F48000012CECC
:101458003F3F3F00790AA2D5200314300509B9108F
:10146800020404B9080104A2D52006025001042090
:1014780002689202B546005034C0E07F203003195C
:101488007F30A20272067205500F1214B5C202C252
:1014980006C205C2087F30800F300503E9C0E0129C
:1014A8001204300503D0E0F9D0E0B546CC3005177A
:1014B8007F30B9100C1212047F583004077F7880EF
:1014C80003B908031212043002057F2D0212047FAB
:1014D800202008F87F2B2006F322920280CF286E66
:1014E800756C6C2900D2011211C93001F8C201785B
:1014F8004630D50108F602126F2D50434958121193
:10150800C92403B405004001E4901501931211F5B4
:0D151800743A1211F5D20375460402135403
:10241E00E4FFFE121525600C0FEF70010E09E97036
:05242E00F20A80EF221C
:1020F500022221E493A3F8E493A34003F68001F2BE
:1021050008DFF48029E493A3F85407240CC8C333EB
:10211500C4540F4420C8834004F456800146F6DFBA
:10212500E4800B0102040810204080902465E47EC1
:10213500019360BCA3FF543F30E509541FFEE493AF
:10214500A360010ECF54C025E060A840B8E493A376
:10215500FAE493A3F8E493A3C8C582C8CAC583CAA1
:10216500F0A3C8C582C8CAC583CADFE9DEE780BE59
:01247100006A
:1016CA00BB010689828A83F0225002F722BBFE01FF
:0216DA00F322F9
:1016DC00BC000BBE0029EF8DF084FFADF022E4CCF2
:1016EC00F875F008EF2FFFEE33FEEC33FCEE9DECBB
:1016FC00984005FCEE9DFE0FD5F0E9E4CEFD22ED01
:10170C00F8F5F0EE8420D21CFEADF075F008EF2F4A
:10171C00FFED33FD4007985006D5F0F222C398FD3B
:05172C000FD5F0EA22D8
:10173100FAE6FB0808E6F925F0F618E6CA3AF622B9
:10174100D083D082F8E4937012740193700DA3A337
:1017510093F8740193F5828883E47374029368604B
:06176100EFA3A3A380DF4B
:10231100EFB40A07740D12231C740A309811A8999E
:10232100B8130CC2983098FDA899C298B811F6302C
:0723310099FDC299F5992204
:00000001FF
